:020000040020DA
:10000000947B002065F3210095F3210099F32100F2
:100010009DF321009DF321009DF3210000000000CD
:100020000000000000000000000000009DF321001F
:100030009DF32100000000009DF3210051EE2100FE
:100040009DF321009DF321009DF321009DF32100EC
:10005000000000009DF321009DF321009DF321008D
:100060009DF32100000000000000000000000000DF
:1000700000000000000000009DF3210000000000CF
:1000800000000000000000009DF321009DF321000E
:100090009DF321009DF321009DF321009DF321009C
:1000A0009DF321009DF321001F4920008549200078
:1000B0009DF321009DF321009DF321009DF321007C
:1000C0009DF42100D94820009DF321009DF32100DB
:1000D0009DF321000000000000000000000000006F
:1000E0000000000000000000000000000000000010
:1000F0009DF32100000000009DF32100000000009E
:10010000FFFFFFFFFFFFFFFFFFFFFFFFFFFFFFFFFF
:10011000FFFFFFFFFFFFFFFFFFFFFFFFA21CFFFF2F
:10012000FFFFFFFFFFFFFFFFFFFFFFFFFFFFFFFFDF
:10013000FFFFFFFF10B5DFF8B80B0FF2B961C84C35
:1001400041650FF2F97181650FF27551E1620FF2AD
:10015000355121630FF6290161630FF65501A16343
:100160000FF2F971E1630FF2C13121640FF2B55161
:1001700041640FF20D6181640FF27551C1640FF695
:10018000A9010165206908B102F08EFBDFF8B40B0C
:100190000B49A0600B22082020730020206181F809
:1001A00020002075002104F1150002F0C7FB04F1C6
:1001B0002000BDE810400B22002102F0BFBB000070
:1001C000C44200203EB504460520E082032020758D
:1001D0006068401E6060411E616094F83A100170D2
:1001E00094F83A0010B14FF6FF7121876068411E04
:1001F0006160218F090A01706168208F087004F125
:100200002F01207AC01C2072684602F0D0FDDFF872
:10021000F809C38C03228DF8082003216A46204682
:1002200001F0DEFC050004BF204600F0B2FE2846C7
:100230003EBD70B50D46044661680498160A01F883
:10024000016D01F8020C01F8012CDFF8BC09428DA8
:10025000120A01F8032C408D01F8040C180A01F869
:10026000050C01F8063D227A606861608218521A16
:100270002272287ADFF82C1C03280CBF01200020F2
:10028000E0820B220920207504F1240002F03EFBDD
:100290004FF6FF732A460321204601F0A1FC05001A
:1002A00004BF204600F075FE284670BDDFF8F81B3D
:1002B000897A082981B0A8BF072101700078C0069B
:1002C000000E01B0704700002DE9F04706460F46CA
:1002D000904602F073FD0025DFF8CC9BD9F8004072
:1002E000B0F1010A6AEB0A0A4FEADA7A09E0F61F6E
:1002F000411D304602F05BFD54F8084C761E103567
:100300007F1EF8B268B10AE0607E410605D56068DC
:100310004178C1F381010329E9D054F8084C002C3D
:10032000F2D1BAF1000F18BF02F044FD02F046FD11
:10033000421E9241D9F80000D20F2C46E8B1436822
:100340005D78C5F38105022D14D1457E690609D576
:100350009B7906F80139641C43685D7906F80159F8
:100360007F1E07E0037E9D0604D5012588F8005016
:10037000FBB213B150F8080CE0E70AB102F01AFD25
:100380003470701EBDE8F0872DE9F84384B00D4647
:10039000002180468DF8001091460DF10100FFF715
:1003A00085FFDFF864783E7B86194136F6B2304629
:1003B00002F0F4FA04004ED0A01960600020207210
:1003C0003A7B6068114649424618B968304602F0E7
:1003D0009DFA9DF801106A46701EFFF775FF002117
:1003E0007E4A0170137879789B0143EAC11343EA8E
:1003F000091343F00F0300F8013C48EA051100F827
:10040000021D227A616860608A18121A0020227226
:10041000E08220758DF80C000B22DFF8E81B04F158
:10042000240002F073FA9DF8000018B1E18A41F04F
:100430000801E1824FF6FE71788D8842ACBF03213E
:100440000221002301AA204601F0CAFB0028204611
:1004500002D002F0B5FA002005B0BDE8F08300003C
:10046000F4520020F8B5074602F0A8FC461EDFF85B
:10047000380A0468B641F60F00250EE0617E0806D2
:1004800009D57968606801F057FB20B1607E00F003
:10049000BF006076254654F8084C002CEED11DB103
:1004A000687E40F0400068761EB1BDE8F14002F081
:1004B00081BCF1BD2DE9F8438046894602F07EFCFF
:1004C0000026471EDFF8E0090568BF41FF0F002442
:1004D0000AE02C46617E207E41F0100140F0800051
:1004E0006176207655F8085C9DB1687E0106F9D5E5
:1004F0006A684946404601F03BFB0028F2D0002CD8
:10050000E7D0207D012804D16068017841F0100116
:1005100001700FB102F04EFC14B100F0C7FC0126CF
:100520003046BDE8F28300002DE9FC41002500952E
:1005300002F044FC00F04BF80EE054F8088C2A4618
:100540002146384602F006FB2146684602F0BEFA14
:10055000B87A411E4446B972CCB1607E010605D519
:10056000608A401E608280B20028E6D0254654F89A
:10057000084CF1E7FFF776FF607E410759BFF02096
:100580006070E9216170204600F0E3FB18E00EB1D5
:1005900002F010FCB87A98B1DFF86C16487B0F288F
:1005A0001EBFDFF8281B91F82000002808D1DFF8D3
:1005B0003C4C204602F0B5F83021204602F098F875
:1005C000684602F09EFA0400D4D1BDE8F381DFF85A
:1005D000007B3C68461EB641F60F70476052002013
:1005E00070B50546FFF73EFFDFF8BC48DFF8186638
:1005F000A06C80470128F08D08BF401C6882A07A5B
:10060000002804BF717B0F2908D1DFF8E05B284682
:1006100002F087F83021284602F06AF802F0CEFB9B
:10062000A17A00F02AF8A17218B1BDE8704002F07A
:10063000C1BB70BD38B50446DFF86C58607E00F071
:10064000EF0060762046FFF70DFF2146284602F0B6
:1006500070FA02F0B3FBA97A00F00FF8A97208B1A2
:1006600002F0A8FBDFF8A005417B0F2904D1BDE80B
:100670003240082001F0A8B831BD401E8041491C1D
:10068000C00F704710B5DFF880150446487886B073
:10069000A0B1012100208DF800108DF8010000F0BC
:1006A0003AF8616808788DF80A0004F10F010DF13D
:1006B0000B0001F0EBFB684602F0A4FC06B010BD95
:1006C00010B50446FFF77EFDDC2818BFDD2808D0F2
:1006D000E42818BFF32804D0DE281CBFDF28DB285D
:1006E00005D101462046BDE8104001F073B810BDA9
:1006F00010B586B0044606208DF8000000F00BF817
:1007000004F10F010DF10A0001F0C0FB684602F090
:1007100079FC06B010BD04F11C010DF1020002F0DD
:1007200046BB000038B5044604F1380584B0A8780B
:1007300020B304F12F0101A802F039FB6248017DCA
:100740000388009103228DF80C2001A92A882046F5
:10075000FFF76FFD0146DC2918BFDD290BD0E42926
:1007600018BFF32907D0DE2918BFDF2903D0E829F5
:1007700018BFDB2902D1204601F02CF805B030BDAE
:100780002DE9F843804602F019FBE725DFF84079B0
:100790003C68461EB6414FF00009F60F02E0A14644
:1007A00054F8084C9CB1607E0106F8D5207D0128E4
:1007B00002BF94F83D1098F804008142EFD14A46F8
:1007C0002146384602F0C6F9B87A411EB9720EB118
:1007D00002F0F0FA3CB12046FFF744FEF02120463B
:1007E00000F0F8FF002529464046BDE8F44300F03C
:1007F000F1BF000038B5054684B06878F32818BF0B
:10080000DF2822D0E82818BFDB281ED0284600F0B9
:1008100029F8040018D1287CB0B105F11101092094
:1008200000F087F980B100F015F8A97A009101A9CC
:100830002B89FFF7FEFC0446F32C18BFDF2C03D0F6
:10084000E82C18BFDB2C03D16C70284600F076F83A
:1008500005B030BD02218DF80C104FF6FF72ADF8D7
:100860000420704738B504460025A07A0B381328B9
:10087000207B28BFE8251028A8BFE82501DA0F282B
:1008800005D0DFF86C140A7A110758BFE825617BA0
:10089000884202D20F2918BFE825DFF86C03418D8A
:1008A0004FF6FF72914208BFEC25242001F092FF21
:1008B000DFF89C1C086120B12422211D02F026F8DB
:1008C00000E01A25284632BDCA50002070B5044603
:1008D000CD4D207ADFF8706B6873607A85F82C0054
:1008E000E07AE870A07A307002F0D0FC307838B14D
:1008F000211D502002F03EFEA11DE12002F03AFE33
:10090000DFF8C817012081F8200004F10D01687B91
:10091000DFF83C5C0F2814BF0120002028750B2253
:1009200005F1150001F0F2FF04F1180105F12000B6
:10093000BDE870400B2201F0E9BF000010B504468D
:10094000607820B9DFF8081C0869FFF7BFFF2C2189
:1009500021702046BDE8104000F08CBF10B5DFF8D4
:10096000F01B0446086918B100220A6101F09CFFDF
:10097000082020702046BDE8104002F043BB000074
:10098000DFF8481791F82000002800D1704780B5A3
:10099000DFF85818087D50B99B48C27890F82C10A1
:1009A000407BFFF7F1FC10B1BDE80240F1E201BD70
:1009B00030B5054689B0A87B0124410721D5E98ED1
:1009C00005F11C00FFF776FDD8B9DFF8A41C4879C3
:1009D000012808BF002414D00B2205F10F0106A83E
:1009E00001F094FF00F08EFDACBF0321022106A8A8
:1009F00030220190009205F11C02EB8E012001F0E3
:100A0000A1F910208DF8080005F11C010DF10A0074
:100A100002F0B5F9E88EADF814008DF8164002A882
:100A200002F0F0FA09B030BDDFF81C1A087800288F
:100A300018BF01F06EBB7047AD4800F15401016270
:100A4000DFF8301C416200F1440181620FF22001A5
:100A50000164DFF8241C0166DFF8581C8167DFF8A9
:100A6000581CC167018941F00201018170470000F3
:100A700003047104020460041104700402040204FB
:100A800001040204100461040004140463047304E8
:100A90007204620443040004130406040004000406
:100AA000040412040004000400040004510464005F
:100AB00000040004000444040004000400040004D2
:100AC0006504000435048104640005040004830403
:100AD0000004000002461146032000F010BF01464A
:100AE000082000F0EEBE1CB5DFF8E4450FF25920F7
:100AF00060640FF23D20A06406E0204602F001F899
:100B00000090684600F0BFFF21680029F5D16068B9
:100B100038B1201D01F0F5FF0090684600F0B3FFEA
:100B2000F5E72060A072E07220730FF2C950E06216
:100B300013BD38B504460FF2C050055D284601F0DC
:100B40002DFF20B1411941600021017232BD022008
:100B500001F024FF58B10FF2C451095D01701A2150
:100B600041700146DFF86805007C01F038FF002085
:100B700032BD831DC907DBB20DD50A2193FBF1F10C
:100B80000A2202FB1131C9B229B10A335B1A0529C5
:100B9000A8BF0A330B331328ACBF14200620C31898
:100BA000DBB209330A2093FBF0F0C0B2704780B586
:100BB0004F48017A880704D502F01CFB10B10120D0
:100BC00002BD002002BD4A48017A880781B00CD5D9
:100BD000B54A907A38B9DFF8F414C86F28B1407E6E
:100BE00010F0800002D0012000E0002001B070472A
:100BF000AD49DFF87C3A0A7B99788A4238BF01F028
:100C0000CDBE002070470000A450002080B500F049
:100C10003AFF002002BD31B582B0017BA24C21B168
:100C2000012926D0032926D037E0DFF8445C687B11
:100C30000F281EBF2E498A7A032A02D00298E16B40
:100C40008847029995F83A00887314200299087031
:100C5000201D029901F03AFF02F0B0F8217BFFF766
:100C60000CFD217308B102F0A5F8202000F0ACFDC6
:100C700037BD1520EAE70146087A70B14868401C84
:100C80004860029910F8012D4A73029AD07D00281D
:100C9000507B06D008B10A2813DB02A800F0F3FE4F
:100CA00037BD48B10A2807DA0FF25845137A2918D8
:100CB00011F8011C8B4204D0082804BF117A0829BE
:100CC000EBD11046017A4A1E02720299487B0A3023
:100CD00008700298417B491C4173B9E7DFF8F003C3
:100CE000C06C82B008B102B0004702B0704700008B
:100CF0004443002038B504460120207504F13C002F
:100D00004188638FE18204F130020179E176417913
:100D10002177C17984F820100178204600F060FF27
:100D2000050004BF204600F034F9284632BD00001B
:100D3000DFF8440C817A032901D12020704701207B
:100D400070470000C9172000417E41F00101417643
:100D5000704710B5027D017E012A06D10B0704D42D
:100D60004178BDE8104000F035BD4C06DFF8603337
:100D700004D54078196CBDE810400847012A03D11A
:100D8000090748BF30210BD441781B2908BF222115
:100D900006D000290CBF0FF278310FF28031895C48
:100DA00001700146BDE81040187C01F018BE70B516
:100DB000C64C0646E06F002872D03100DFF8AC5C0C
:100DC00004D01B2E05D1017D052953D0002242708D
:100DD00052E0E92E2ED1807E30B902F014FA18B11B
:100DE000E06F817D48072ED5EE2002F087FCE16F91
:100DF000887EE8B18A7D530705D4401E8876BDE819
:100E0000704002F043BD087E00F07F000876E06F7E
:100E1000017D032903D1427E42F004024276ED2097
:100E200002F06CFCDFF8501BE06FCA6F904726E0C1
:100E30004E7021E0E12E15D102F0E5F9D0B1E06F5E
:100E4000817D480716D4E16FA87C8876E16F4A68F7
:100E5000287890702878401C28700120BDE87040E8
:100E600002F073BC1C2E05D10F490A6D904700207B
:100E7000E06770BDE06F4670E06FFFF76AFFE06FFC
:100E8000817D080605D5287E02F051FAE87D02F042
:100E900016FA0020E0671020BDE8704000F094BC16
:100EA00070BD000009530020705100202DE9FC4165
:100EB00001F084FF854E441EA441F06FE40F00282A
:100EC0004FF000085FD1824FB86C80473D6840F01A
:100ED000100002E0A84655F8085C002D53D0697E4A
:100EE00001408142F6D142462946384601F032FEA1
:100EF000F567697E08062CD4F87A411EF9720CB1A8
:100F000001F058FFF46FE18A207AFFF732FE388152
:100F1000A07D010606D5E07E02F009FAF06F007FA1
:100F200002F0CDF9F26FD08AC10520D539890029A8
:100F30001CBF92F82000002811D090FBF1F082F83D
:100F40002100F06F10F8081F1329ACBF0221002107
:100F500003E0B87A411EB972D1E7817605E001203D
:100F600082F82100F16F81F82200032005E0107E55
:100F7000400800F0010080F00100BDE8F64102F0F9
:100F8000E4BBBDE8F381002CFBD0BDE8F34101F0E8
:100F900011BF38B5044600F06FFD217EDFF8D006A2
:100FA0000A0704D4217D012908BF027800D04278C5
:100FB000474D2146284601F0E9FDD8B1696C20462D
:100FC0008847A07D41070ED401F0F8FEE97AFFF7CB
:100FD00054FBE97208B101F0EDFEE08AC1050FD4BF
:100FE000BDE8314062E7DFF890198A6F2046BDE81E
:100FF00032401047F12060702046BDE83240A8E63C
:1010000031BD00001453002050E738B50446DFF826
:10101000680900890021820704F1380303D49A7912
:10102000550748BFE82110F0600F03D19879820777
:1010300048BFE821DFF8A40B8279207A82421A792E
:1010400038BFE821002A02BF18780028F52107D010
:10105000080003D12046FFF74DFE0146080000D0EE
:1010600038E031BD0D21017001F0CCBF38B5044628
:10107000002020706070DFF8F815E08F0978144DBB
:10108000420704D4EA7A8A4204D3F12122E0AA7A00
:101090008A42FAD2C10510D594F84210052912DB14
:1010A00010F0050F0FD105F1240001F03AFB94F880
:1010B000421005F1240001F01BFB287C2146BDE80D
:1010C000344001F08CBCE821E0E70000C44200207D
:1010D000705100202046BDE834407BE310B5044643
:1010E0005C3080B201F05AFC18B100F15C0104726E
:1010F000416010BDDAE6000000464A4C44494943CD
:1011000039513A0002040201010101090200000004
:10111000303016181920231A1C1E300030301718D2
:101120001921301B1D1F3000DFF8080C0FF265116C
:10113000016000220FF2813141600FF2DD11816008
:101140000FF21521C1600FF2113101610FF2C521BB
:1011500041610FF29D2181610FF2B931C1610FF23E
:10116000094101620FF2594141620FF291418162DE
:101170000FF21921C1620FF2E90101630FF2CD01F3
:1011800041630FF2C92181630FF25941C163DFF856
:10119000A81B01640FF27D4141640FF2ED418164AF
:1011A000DFF8980B00F15C010A70CA7002220FF29E
:1011B000196140F83C1F01610271012101757047FE
:1011C000F8B502228DF800208DF8010008B14FF625
:1011D000FF71ADF802100B22DFF8641B01A801F0CB
:1011E00095FB684601F00EFF05B000BDF4520020EB
:1011F00080B50A228DF801008DF800208DF80210CC
:10120000684601F0FFFE01BD3EB504460120E082C4
:1012100004F1320102202075684601F0B0FD6068DB
:10122000A38F94F83E10401E606001706A46207AD9
:10123000401C20728321204600F0D2FC050004BF30
:101240002046FFF7A6FE28463EBD0000DFF8202618
:1012500092F8351030204143DFF8700C01F048BAA5
:1012600030B5DFF80C46607B0F2893B006D02E21F6
:101270008DF80010684600F0FDFA09E000F0DEF895
:10128000608E1421B0FBF1F105F1340001F030FA69
:1012900013B030BD38B504466078010032D104F196
:1012A0003205297A02291CBF0329E82094F82F105F
:1012B0000B39132913D2010024D104F12F01E120AD
:1012C00002F058F904F13C01502002F053F9297A58
:1012D000DFF89C05022904D12A88028408E0E8206E
:1012E00012E04FF6FE7101841630294601F05FFDD1
:1012F0000B2204F12401DFF8480A01F007FB204625
:10130000FFF782FF010006D0607017202070204692
:10131000BDE83240AEE231BD18B5DFF8204A94F89E
:101320005F0085B0A8B9012184F85F10012002F0A8
:10133000C6FB02A800F0F1FBDFF8342504F15400ED
:101340000121019000910321D38C02AA052000F015
:10135000F9FC06B010BD000010B500F0A9F8217826
:10136000202904BFEB20607000F0ECF844BF01F0CE
:10137000FB0180F85F1000F0E1F800D5EAE02A20D8
:1013800020702046BDE8104074E200007CB500F0FB
:101390008FF800F053F805F1440001F0C2F900F0B5
:1013A0006DF9ADF8001060688678300008D16946A4
:1013B000532002F0DFF804F11C014A2002F0DAF8B1
:1013C0000B2204F10F0105F1540001F09FFABDF862
:1013D00000103046FFF7F4FE95F85F00810703D553
:1013E00060780021FFF704FF002085F85F0073BDDF
:1013F00010B50446EB206070DFF8800B90F85F209A
:10140000900703D50021EB20FFF7F2FE4FEA04001E
:10141000BDE8104038B500F04BF800F00FF805F1CA
:10142000440001F07EF905F15C0000210170C170FB
:101430004FF6FF716078BDE83440C1E6DFF83C5BF1
:1014400005F1340001F06DB96052002010B504467A
:10145000FFF7CEFFCCE0000010B500F029F8207AAD
:10146000002814BF0020EB20607000F06BF844BF30
:1014700001F0FB0180F85F1000F060F80BD501F07F
:10148000FD0180F85F1000F095F8ACBF012100214C
:10149000FFF7AEFE08E0C80706D52A202070EB2033
:1014A0006070204600F0E6F92046BDE81040D9E51E
:1014B0000446012002F014BB1CB50446DFF8BC0A48
:1014C00090F85F1041F0020180F85F10012002F0F7
:1014D000F6FA617879B900F015F8ACBF0321022162
:1014E00004F11000012201900092221DE3890520E1
:1014F00000F028FC6070607818B1BDE81C40002145
:1015000076E613BDDFF86803418D4FF6FE72914217
:101510007047000010B5FFF7CBFF2178202904BFEA
:10152000EB20607000F00EF844BF01F0FB0180F882
:101530005F1000F003F800D50CE010BD90F85F10CC
:101540008A077047DFF8340A90F85F104A0770473F
:10155000F452002001F0FD0180F85F100021607856
:10156000BDE8104044E6000038B5FFF7A1FFFFF7E3
:1015700065FF207A002814BF0020EB20607095F8EA
:101580005F00410744BF00F0FB0085F85F0095F85D
:101590005F0081070AD500F0FD0085F85F0000F0CC
:1015A00009F8ACBF01210021FFF722FE2046BDE86B
:1015B000324057E5A07B00F01000012860787047AA
:1015C00010B5FFF775FFEB216170FFF7BBFF44BF5C
:1015D00001F0FB0180F85F10FFF7B0FF00D5B9E71D
:1015E00010BD000010B500F010F82046FFF7E8FF2E
:1015F0002046BDE8104000F01BBD000010B500F013
:1016000004F82046BDE81040DAE70446DFF8EC0BAA
:1016100001F087B818B5044685B004F11C01DFF865
:10162000E00B01F099FB08B3EF2009218DF80100D0
:101630008DF8001000F022F8ADF802106068017912
:101640008DF80410207A082804D16168C8798DF8D3
:10165000050002E000218DF8051004F10F010DF1E5
:10166000060000F013FC684601F0CCFC06B010BD8B
:1016700094F4210020530020350120006068017897
:10168000407801EB0021704700F043BDBA48DFF815
:10169000A41681613831C1610FF2200141630FF25C
:1016A00080018163DFF8601BC165018941F00101A0
:1016B00001817047E105200035062000010171011C
:1016C000010101011101010131010101010180014B
:1016D000100161013B00140063017301720162019A
:1016E00043010001130106013D013500040112010F
:1016F0000001000100010001040104013301330174
:101700003C01440132013600000100016501000185
:101710003500810100010501820183010001000003
:101720000302710230016002110270020102020222
:1017300002028002100261023A0041006302730259
:101740007202620243020002130238000002000229
:10175000040212020002000200020002040204025B
:10176000370037003C024402000239000002000248
:101770006502000235028102000205028202830234
:1017800000020000024611460220B8E00146062091
:1017900097E01CB5784C206810B1204600F073F932
:1017A0000021A172DFF8381B086858B102E06846D2
:1017B00000F069F9DFF82C0B007C01F03DF90028FE
:1017C0000090F4D113BD00000146DFF8180B007C37
:1017D00001F0FEB900B585B003780FF27C02D25C4F
:1017E0008DF800200B2A03D1417000F071FB31E02D
:1017F00082B30C2A29D11A2902D10020019024E0B9
:10180000019090F83D208DF80220C2680292028A71
:10181000ADF80C20827DD30648BF002204D4144AC0
:1018200092F83430827E9A1A8DF80E20427F8DF81D
:101830000F20827F8DF81020C27F8DF81120C08A82
:10184000C20544BF11228DF800208DF801106846B2
:1018500001F0D8FB05B000BD0C0E020B040B0A070B
:1018600008000F009748817A481E8041C00F7047DA
:10187000A450002038B5934A937A02F1300102F166
:10188000300551F82330017801F07F01017003EB3E
:1018900041014C78214655F8211001B19472047829
:1018A00013F81430190902EB8102D16811B9BDE8AF
:1018B0003240F0E203F00F0351F82310BDE834404A
:1018C00008477CB505460FF28400405D0E4601F0E6
:1018D00065F804000CD0257000210FF27C006170C7
:1018E0003146425D201D01F011F800F03BF873BD58
:1018F0008DF800501A216846FFF76CFF73BDF8B5EC
:1019000007460FF24800C65D0D46304601F046F826
:10191000040012D02770002060702946A019606072
:10192000002020720FF23000C25D04F1240000F0AC
:10193000EDFF00F017F80020F2BD8DF800701A21BD
:101940006846FFF747FF1A20F2BD0000000559570F
:10195000515C1C202807020000011C181A18181CD2
:1019600024030000DFF87C09007C214601F037B831
:10197000DFF870190874704744430020F8B50E462C
:10198000B006504DDFF85C7919D41DE001F016FA6D
:10199000397B401E80414A1EC00F3A7308B101F0E6
:1019A00009FA20788DF800006C602046FFF762FF8E
:1019B0009DF8000015281CBF281D00F064F8381D94
:1019C00001F09FF80400E1D1300406D40AE0686019
:1019D000FFF750FF281D00F056F8387C01F02CF876
:1019E0000028F4D1F00602D52D2000F041F8F007D0
:1019F00002D5242000F03CF8B00702D5252000F0E5
:101A000037F8700702D5262000F032F8300702D5EB
:101A1000282000F02DF8700607D500208DF8010071
:101A20002C218DF8001000F025F8300607D5002095
:101A30008DF801002F218DF8001000F01BF82868A8
:101A400088B101F0BBF9401E2C6880410021C00F15
:101A5000296008B101F0AEF96C602046FFF70AFF7B
:101A6000281D00F010F80020F2BD0000C650002034
:101A70008DF800006846FDE612494A68824204BFBC
:101A800000204860704738B5040008BF02F0C6F86F
:101A900001F094F9451EAD412168ED0F59B1094A95
:101AA0005368A1F108008B4204BF0021516000215E
:101AB000216000F0F9FE1DB1BDE8314001F07AB9B6
:101AC00031BD000044430020DFF8600B0FF2C53148
:101AD00041600FF2D13181600FF2CD31C160DFF88A
:101AE000501B01610FF2E9314161DFF8481B816150
:101AF000DFF8701BC1610FF20D7181630FF291412C
:101B0000C1630FF2ED4101640FF2815141640FF2A4
:101B100021518164002101707047DFF8901B0A8C0D
:101B20004FF6FE739A4204BF163101F028B9022223
:101B30000272098C0180704742784B78C2F38102AF
:101B4000C3F381039A4211D1022A09D142794B7918
:101B50009A4202BF80798979884207D10120704773
:101B6000032A03D1491D401D01F013B9002070471D
:101B700038B55478057A0023C4F38104AC4218D1F7
:101B8000022C10D154799579008804EB0524A4B275
:101B9000A0420ED1D078127900EB022080B28142AF
:101BA00007D1012305E0032C03D1511D01F0F1F809
:101BB0000346184632BD017ADFF8F02A022907D120
:101BC000128C0088824201D10120704700207047AA
:101BD000014602F1160001F0BFB8000094F42100A4
:101BE0002DE9F84F90469946DFF8C02A98F808404A
:101BF00002F114060B064CBF4FF6FF77778A0546B5
:101C000001F07F018DF800104FF0000AA87D8106D9
:101C10004CBF082000202876A87D41074CBF8020BB
:101C20001020687602F13400A97DCB064CBF00215C
:101C30000178A976E98ACB0748BF4FF0200A090747
:101C400069682B7D48BF4AF0100A491E022B07DB4A
:101C50000B2B1CBF5B1E01F801394AF0030A01E09F
:101C600043EA0A0A407D012804D12B7A672BA8BFDA
:101C70004AF4805A9DF8000002284AEA803A07D1C7
:101C8000F08A000A0870F28A01F8012C891E0AE025
:101C9000032808D1A1F1070B02F13C01584601F0DD
:101CA00086F8ABF101019DF8000050B124B14F4519
:101CB00008BF4AF0400A04D03812087001F8017CCD
:101CC000891E022C4AEA842A09D1B8F80000000AC9
:101CD00001F80109B8F8002001F8012907E0032CF8
:101CE00005D1CF1F4146384601F061F8791E2CB16D
:101CF0004FEA1920087001F8019C891E287D4A1EB0
:101D000018B93078431C337002E0B07B431CB373C6
:101D100008704FEA0A40000E107002F801AD297AEF
:101D200068686A604118891A297200206870BDE8E5
:101D3000F28F0000145200207D242000105100205A
:101D4000645100202DE9F047099D894607469246D7
:101D500098462946FEF7EDFE1A2604001AD0089888
:101D6000E08227750B22294604F1240000F0CEFD05
:101D70004346524649462046FFF732FF064648B9D9
:101D8000FF1F012F03D8607E40F0200060762046C0
:101D9000FFF7FFF83046BDE8F0873EB5044604F192
:101DA0003C050121687800B105210420E1822075FD
:101DB00004F13001684600F0E2FF6068638F401E66
:101DC00060606A46297801700321207A401C2072E5
:101DD0002046FFF705FF050004BF2046FFF7D9F8AE
:101DE00028463EBD70B504460D460520207005F11D
:101DF0003A06F078A0706068296B416105F11C011A
:101E000000F0BDFF6068E98E4181317841740021A6
:101E100060680176C17305F10F016068193000F048
:101E200035F86168A87B8873686862680178918179
:101E3000437841EA032191818178C01CCB0918BF06
:101E40000123137411F0070201F0070118BF0122EA
:101E500001EB41015118C9B2084410F8011B21726D
:101E6000E060217A4A00490802F00E0201F03801D0
:101E7000891808446061297A6A685318834227BF29
:101E8000081A101800202072207470BD0B2200F078
:101E90003DBD0000704701780B29BCBF1821FFF73A
:101EA00099BC7047192195E438B5DFF8B05804465D
:101EB000286828B11921FFF78DFC2846FFF7E3FDBC
:101EC0002046FFF7D9FD2C6031BD000054510020A1
:101ED00030B5044689B02078DFF88458032808D04C
:101EE000052812D0182804D01E2818BF1F280CD08F
:101EF0001CE000208DF8180004F12F0103A800F069
:101F000056FF03218DF814100AE001218DF81810F6
:101F100003A804F12F0100F04AFF03208DF81400FC
:101F200000F02EF8E88CADF8160015E002218DF8CF
:101F3000181003A804F11C0100F039FF03208DF8EC
:101F4000140000F01DF804F10F01E88CADF8160044
:101F50000DF11900FFF79AFF0B208DF800000DF12D
:101F6000190061788DF8011004F10F01FFF78EFF61
:101F7000684601F047F809B030BD0000105100205C
:101F80000221688DADF802008DF80A10704700003C
:101F900038B504466578280014D1DFF81017608F33
:101FA000CA8C904218BFE82504F13000FFF703FE09
:101FB00090B1002184F83D10280003D12046FFF79E
:101FC000ECFE0546280006D06570192020702046DA
:101FD000BDE832404EE431BD94F83D000028EBD01E
:101FE000DFF8801791F820000028E5D1E825EBE71D
:101FF00018B585B004218DF8041000F13001427845
:102000008DF80520428FADF810200DF1060000F08C
:10201000B6FE0DF10600FFF7CEFD20B100F02DF861
:10202000DFF83C07048401A800F0ECFF06B010BD07
:1020300018B587B0044603208DF8040004F11C0194
:102040000DF1060000F0B3FE616808788DF80E000F
:1020500004F10F010DF10F00FFF718FF04F11C0050
:10206000FFF7A9FD20B100F008F8DFF8F4060484BA
:1020700001A800F0C7FF08B010BD4FF6FF74ADF81F
:1020800000406946532001F075BA000030B505469E
:1020900091B06868DFF814464178480609D5E08CAD
:1020A000E98E884205D1DFF884150878D0B100F0B8
:1020B00030F808A9039102A82946FFF793FE2B20C8
:1020C0008DF8080002A8FFF7D5FBA07810B19DF8A5
:1020D000180028B105218DF8081002A800F092FF21
:1020E00011B030BD94F830000028E2D005F11C009A
:1020F000FFF761FD0028DCD105F10F0001210190FF
:10210000009104F11602E38C03210620FFF71AFE6A
:10211000E6E700B585B009208DF80000EE218DF8C6
:102120000110684600F06EFF05B000BD2DE9F041DA
:10213000054600F043FE441EA441E40F0DB101F03A
:10214000DDF9DFF8685501F0BCFA05F13906002722
:102150007078DFF8088601F0EAF83078DFF8CC64B0
:1021600001F0ADF8307801F091F8E88C01F099F8C1
:10217000688D01F098F805F13C0001F09BF808F13A
:102180005C0050F8270000B180477F1C072FF6DB6A
:1021900000F0E5F9FFF7FDFA00207070FEF7A3FCF0
:1021A000FFF792FC05F12901522001F0E3F90CB18F
:1021B00000F000FE0020BDE8F081DFF870040FF2AF
:1021C00069010162021D0FF23D3141620FF26D3172
:1021D00081620FF21511C1620FF2052101630FF246
:1021E000BD114163DFF87415CA6000F13802203078
:1021F00048610A610020088101F054BA445100206E
:10220000BA500020704700002911200007220270F8
:102210000A7A82708A7AC2704A6842600022027228
:10222000C969C1607047000038B50446DFF8385509
:1022300000206870207A0628A4BFE8216970607ABF
:102240000E2804DD217A032904D0E8206870207A62
:10225000032806D1DFF80415087AC1075CBFE8211E
:10226000697021462846FFF7D1FF6068800A28621E
:1022700005F12400617A0170E17A4170217B81705F
:10228000617BC170A17B01710A214171DFF81C14CF
:1022900091F83A2082710B22DFF8D004A86104F192
:1022A0000F010420287705F12B0000F02FFB69783F
:1022B000002904BF607800280BD1A87808B1EA2172
:1022C000697001F076F826202070042001F0E1FB0F
:1022D00001E0292020702046BDE83240FFF7CABA4D
:1022E0000C5700207051002078B5DFF87C4405467B
:1022F000A07885B070B994F829100A290AD001F0A5
:1023000081F8E16894F82920114401F80B0C207A37
:10231000401C2072216A94F8290049082162401C5F
:10232000C90784F8290002D4C1B21E29F2DBC0B269
:102330001E282CD004F12901E12001F01BF9022014
:102340008DF810004FF6FF73A078ADF80830002824
:1023500018BF022803D1284600F020F81CE001280D
:1023600004F12B0207BF082080210720832101925E
:102370000026009602AAFFF7E5FCDB2818BFE52837
:1023800004D0F3281CBFDF28E82805D1607029207D
:1023900028702846FFF76EFA06B070BD38B5DFF832
:1023A000C843606804F1240101254A7905FA02F264
:1023B000904360603022A078032804D1DFF8A03376
:1023C00093F8355002E009788D406D1C554308B9EB
:1023D00001F016F8294604F11000BDE8344087E109
:1023E000F0B5DFF884530446A87802281CBF012802
:1023F00005288FB03CD1002006A96870019168467D
:102400002146FFF7EFFC2E7A95F8250086421BD275
:10241000EF680BE07889BDF82210884204D106A944
:10242000384600F099FC78B9761E2437F0B20028BF
:10243000F0D12E7AEB682422564306A9981900F0B1
:1024400065FA297A491C2972DFF81423907828B19B
:102450009DF8101011B995F8250010B9684600F0E4
:10246000D1FD95F8250038B1297A814204D101E0E7
:10247000E820687000F040F80FB0F0BD7CB504466D
:1024800004F12400DFF8E0520178032904BF827AC6
:10249000032A2CD104F11C014A2001F06BF860687A
:1024A0000178427801EB0221ADF80010861C6946E4
:1024B000502001F05FF83078717800EB0120ADF822
:1024C000000069464B2001F055F8B61C3146E1206A
:1024D00001F050F8701C0178407801EB0021ADF854
:1024E00000105320694601F045F8002000E0E82084
:1024F000687000F001F873BD292020702046FFF7B6
:10250000B9B9000010B5DFF8604204F1100000F026
:1025100008F900F06BFF042001F0E2FAA17803292A
:1025200004BF6078002804D004F12A01E12001F002
:1025300021F82046BDE8104000F064BDF8B5014622
:102540006846FFF763FEFC218DF80110684600F035
:1025500059FD05B000BD01460720FFF7B2B9844818
:102560000021016041604FF47F018160C160002162
:102570000161704738B57E4C00202061206868B149
:102580004068A168884209DA01F085FB21684D683E
:10259000A842B8BF28464860206820612069616869
:1025A00031B118B14A684068824202DA216100E024
:1025B00040B12069A1684068884203DABDE8324032
:1025C00001F091BBBDE8314001F0B3BBF8B500F0BC
:1025D000F5FB674D441EA4412869E40F10B3A968B8
:1025E0004068814203DA01F019FB2869D0B101F09B
:1025F00052FB29694968884214D3002948BF01F079
:102600000DFB2F69384600F08CF83E7BBF680CB19B
:1026100000F0D0FB3046B84700F0D0FB441EA44188
:10262000E40FE2E704B195E0F1BD00006052002044
:102630000B1020000910200070B505460C464C4ECA
:102640000DE06068316928188C4202D1002848BF2B
:1026500000206060002848BF01F0E0FA2468002CE8
:10266000EFD170BD6510200070B5414E00F0A6FBA3
:1026700074683168451EB068AD414042FFF7DCFF29
:10268000B168ED0F05E060688842A4BF401A606041
:102690002468002CF7D1F06881421CBFB06001F0C3
:1026A000E1FAFFF767FF05B11EE070BDA4500020FE
:1026B00070B504460D4600F081FB461EB641286801
:1026C000F60F294630B1626843689A42A4BF0146BA
:1026D0000068F7DA0C6020602868A04208BFFFF7A6
:1026E00049FF06B100E070BDBDE8704000F062BB7C
:1026F00038B504460D4601F0CEFA4519656020460E
:10270000BDE834401A49D3E70A6801E011461A4689
:102710002AB113688242F9D10B6001207047002072
:10272000704770B5044600F049FB114E451E314616
:102730002046AD41FFF7E8FFED0F18B9311D2046E7
:10274000FFF7E2FF3069844208BFFFF713FF05B1CE
:10275000CAE770BDBDE8F14000F02CBB4443002047
:10276000A4500020C4420020A8530020C917200014
:10277000C443002010B56148614B41F6FC32002192
:10278000815218604FF42774048000F5277048F2D6
:10279000040141F65C120180828010BD38B5012031
:1027A00000F018F8050008BF01F038FA00F006FB49
:1027B0005349441EA441281F0860E40F284600F036
:1027C00073F85049012008701CB1BDE8314000F099
:1027D000F1BA31BD2DE9F84300240026051D15F09E
:1027E00003001CBF291D0D1A00F0E8FA444FD7F86A
:1027F00000C0431E434800789B41DB0F10B1A9B2D3
:10280000112907D26246D2F800E0CEF3C03119B1E7
:10281000002627E03C4AF6E7A9B2EEB1D4F80080E2
:10282000C6444FEAD839CEF30E0E4EEAC93EC4F87C
:1028300000E0CEF30E0E8E4514DB44B32268C2F3E3
:102840000E06761B1FFA86FEBEF1080F13D36652E2
:1028500045F40045258011E0CEF30E048C4221DAC8
:10286000012614461168C1F30E010A44118800299B
:10287000C9D100240BE042F40042226030B1A445EB
:1028800004D12068C0F30E0021183960241D0BB15B
:1028900000F090FA14F0030018BF01F0BFF92046D1
:1028A000BDE8F2831446C8E710B5144988420446CF
:1028B00003D301F5E051884201D301F0AFF954F898
:1028C000040CC0F3C03008B901F0A8F900F076FAA2
:1028D00054F8041C0A4A21F40041401E44F8041C28
:1028E00080411368C00F211F994238BF116018B191
:1028F000BDE8104000F05EBA10BD00009457002003
:10290000987D00207C570020345A002003E011F805
:10291000013B00F8013B13465A1E002BF7D17047CC
:1029200010B513465A1E3BB110F8013B11F8014B8C
:10293000A342F6D0002010BD012010BD10B5044602
:1029400010460A460146204601F008FA204610BD0E
:1029500001460878497800EB012080B270470246B2
:102960000229107803D1517800EB01207047032928
:1029700006D15178927800EB012000EB02407047BD
:10298000042908D15178937800EB0120D17800EB2D
:10299000034000EB0160704701F03EBA10B504003F
:1029A00001D1002010BD04F1080080B2FFF712FF32
:1029B00028B100210160FF2284808271083010BD9F
:1029C00080B508B9052002BD10F8021CFF2901D00E
:1029D000042002BD0838FFF767FF002002BD002277
:1029E000FFE738B50446A1B1DFF858331D78A84297
:1029F00004D30846FFF7E4FF032032BDA1F108032A
:102A00001868002804BF9879FF2804D00846FFF70B
:102A1000D7FF052032BD012A9C71DFF82C0302D1BB
:102A200000F087F801E000F051F84FF40041204633
:102A300000F0CEF8002032BD2DE9F041804600F0D4
:102A4000BDF900260024DFF80053471EBF41286867
:102A5000FF0F58B110F8021C414502D01CB90646C0
:102A600001E0A4B9044650F8080CF2E74FF4004125
:102A7000404600F0C4F824B132462146284600F012
:102A800069F80FB100F096F92046BDE8F0814FF4E7
:102A90000041404600F09CF8EEE770B505460E4652
:102AA00000F08CF9A8490C68401E8041C00F44B169
:102AB00014F8021CA94206BF2378B34254F8084C0C
:102AC000F5D108B100F076F9204670BD38B500F0B8
:102AD00014F8421E9241002045F8080CD20F2168DC
:102AE00011B9256006E0014651F8080C0028FAD11A
:102AF00041F8085C02B129E031BD04460D4600F002
:102B00005DB938B5044600F059F90025411E8941E8
:102B10002068C90F40B10546A5F1080000230268EE
:102B20002260FF240360847109B100F043F9284654
:102B300032BD38B5FFF7E1FF401E216845F8081C9B
:102B40008041C00F256000D000E031BDBDE83140BC
:102B500000F030B970B504460D46164600F02EF967
:102B6000401EA5F10801804123680A68C00F9D42FC
:102B70000CBF226046F8082C0022FF230A608B71EC
:102B800018B1BDE8704000F015B970BDF8B5064643
:102B90000D46174600F012F90024431E9B41316890
:102BA000DB0F09B935600DE07A1E03E0D1B251B1F7
:102BB0000146521E51F8080C0028F7D1D2B212B1CA
:102BC00041F8085C01240BB100F0F4F82046F2BD96
:102BD00038B500F02CF810D200F0F0F85B49096825
:102BE00031F81420401E8041154321F81450C00FC5
:102BF00008B100F0DFF8002032BD032032BD38B547
:102C000000F015F811D200F0D9F85049096831F8F0
:102C10001420401E22EA0505804121F81450C00FFF
:102C200018BF00F0C7F8002032BD032032BD0D46AA
:102C300044490A7890420446704780B5FF2803D182
:102C400000F0B8F8002002BD072002BD80B5FF28C3
:102C500003D100F0B3F8002002BD072002BD80B50B
:102C6000FFF788FD38490020086001F0D7F801F02F
:102C7000CBF901F0D3F9FFF791FD002002BD80B53B
:102C800000F001F8FCE72DE9F04101F021FA2D48B0
:102C90002E4C017800262268F3B232F8130018B9DE
:102CA000761CF2B28A42F6D3F0B2884229D200F002
:102CB00085F82168F5B231F81580401E8041002268
:102CC00021F81520C00F08B100F074F8204F214AF8
:102CD0003E70414652F82530F0B298470646FF2034
:102CE000387000F06BF8216831F81520401E8041E3
:102CF000164321F81560C00F18B1BDE8F04100F08F
:102D000059B8BDE8F08101700A0A0B0C090E427037
:102D10008370C170001D704701700A0A090C42706F
:102D20008170C01C704710B540B1002300E05B1CEF
:102D3000DCB2944204D2045D8C42F8D0002010BD75
:102D4000012010BD1E3C2000085700200C57002019
:102D5000054400201CF42100027A0B7A9A420CD11F
:102D60005AB1022A05D100880988884205D101207C
:102D70007047032A08BF00F00CB8002070470A7A99
:102D80000272032A04BF0822FFF7C0BD0B8803802C
:102D9000704710B5082210F8013B11F8014BA3420F
:102DA00003D1521EF7D1012010BD002010BD082212
:102DB000FFF7ACBD80B501F091F902E080B501F0FC
:102DC00089F900B10120C0B202BDF0B54F4C504AA4
:102DD000256895420AD02568002605EB86073F68DE
:102DE00042F82670761C402EF7D3226042F820105D
:102DF000F0BD10B50FF22C12830852F8232013688F
:102E0000C00000F01800FF248440A3438140194310
:102E1000116010BD04283F4903D1086840F4803098
:102E20000BE0052804D10A6842F400320A607047BA
:102E3000062804D1086840F48020086070470F28F5
:102E400005D13548016841F00201016070470CD995
:102E50000FF27413A0F110011038400953F820004C
:102E6000012201F01F018A400260704704282949AD
:102E700003D1086820F480300BE0052804D10A68EB
:102E800022F400320A607047062804D1086820F452
:102E90008020086070470F2805D11F48016821F085
:102EA0000201016070470CD90FF23013A0F110013C
:102EB0001038400953F82000012201F01F018A4018
:102EC000026070470E28154904D1086840F0006080
:102ED000086070470F2804D10A6842F000720A6047
:102EE00070470CD90FF20813A0F1100210384009F6
:102EF00053F82000012102F01F0291400160704749
:102F00000748016841F001010160704708ED00E0E9
:102F10000040002024ED00E010E000E004ED00E0BF
:102F200098200D400000000018ED00E01CED00E0CE
:102F300020ED00E000E400E004E400E008E400E04C
:102F40000CE400E010E400E014E400E018E400E029
:102F50001CE400E020E400E024E400E028E400E0D9
:102F60002CE400E030E400E034E400E038E400E089
:102F70003CE400E040E400E044E400E048E400E039
:102F80004CE400E050E400E054E400E058E400E0E9
:102F90005CE400E060E400E064E400E068E400E099
:102FA0006CE400E070E400E074E400E078E400E049
:102FB0007CE400E080E400E084E400E088E400E0F9
:102FC0008CE400E090E400E000E100E004E100E0D7
:102FD00008E100E00CE100E010E100E080E100E049
:102FE00084E100E088E100E08CE100E090E100E0B5
:102FF00080E200E084E200E088E200E08CE200E0B1
:1030000090E200E02DE9F14382B0067892A18D5D57
:10301000ADF80050002D4AD00D2E4FF6FF7911D19A
:103020006946532000F088FABDF800004FF6FE71A3
:1030300088421FBF48450299087A002800F0AB80FB
:103040000C466DE0052E4FF0240804D102990A7C4D
:10305000243250190AE0072E0AD1029988780028F4
:1030600028460EBF1B300A7A08FB0200ADF80000AC
:10307000BDF80000FFF792FC04001CD10C2E16D105
:1030800002994868002812D0FFF798FE471E029860
:10309000BF41001DFEF7F7FCBDF80000FFF77EFC06
:1030A000FF0F040004D1002F01D0FFF783FE96E04C
:1030B0000FB1FFF77FFE02992A462046FFF726FC54
:1030C000052E12D16168242204F11800FFF71EFCBE
:1030D00004F118006060227C61692430FFF716FC5F
:1030E000606800F1240161611AE0072E18D153488D
:1030F0000568ADB100210160A07828B904F1100184
:10310000E1601B22E06805E0217A04F1100008FB71
:1031100001F2E0602946FFF7F9FB2846FFF7C4FB00
:103120004748016819B12046884700284DD10D2E27
:10313000444834D102994A6813785278C3F3830122
:1031400003F00303022B0ADA3F4B9D7CA94201BF27
:1031500012F0C00F029A92F82430022B09D00329F2
:1031600019D1029A0121117000780299FFF737FCFA
:1031700035E094F83B0004F13A0100F046F802987B
:10318000C18C49451CD141688879022818DB20464A
:1031900001F0B6F918B302A8FEF775FC1FE00C2E7B
:1031A0001FD1029841781A291CBF6068002807D0F7
:1031B000807DC10704D5207C04F10F0100F025F8C3
:1031C000224800782146FFF70AFC0C2E18BF112E6A
:1031D00005D10299486810B1081DFEF754FCBDE8FE
:1031E000F783112EECD10021217021460078FFF7E2
:1031F000F6FBEEE716480078002814BF012801F01E
:1032000004B90020704700207047124A1278A2B11A
:103210000B783228B8BF322002DB6F28A8BF6E209F
:10322000012A04D1323858433C2290FBF2F398B281
:10323000B0F5807FA8BFFF230B707047C0560020F9
:1032400028570020345500202C500020D456002050
:10325000784200208C57002000161000001815102E
:1032600002000224144000001014000075480B21D5
:103270008170FF214170C1700170704780B500F00E
:10328000B5F8BDE80140BDE001F052BA6E490A68E8
:10329000030018BF012322F0020242EA43020A603F
:1032A00070476A4900E06A4900F0FF020A60000ABC
:1032B0004860704701460822664801F0DBBB38B51C
:1032C000044665480568297860B24AB28242A3BFC5
:1032D00069784BB298420C46FFF770FD2978594B3C
:1032E000401E8041091B891CC9B2C00F6A5CDA709C
:1032F00008B1FFF75FFD00F002F8204632BD38B597
:10330000FFF75CFD4F4AD3781478411E8941C90FFD
:10331000A34209D0514D287830B9514C2078050688
:1033200002D450481370036001B116E031BD38B5C6
:1033300004460B38122828BF00F070FCFFF73EFD52
:103340004049474A8C70451EAD411078ED0F08B9D1
:1033500000F007F805B100E031BDBDE83140FFF7EE
:1033600029BD10B53E49087808B100F057FCFFF7B9
:1033700025FD344CA1786278401E8041C00F9142F7
:1033800011D0617008B1FFF715FD00F015FC6078F1
:10339000354900EB80002C38086001F0D0FBBDE817
:1033A000104000F0CABB18B1BDE81040FFF702BDE5
:1033B00010BD38B52D490546087808B100F02EFC3F
:1033C0002B4C207808B100F029FC28000CBF01200C
:1033D000032D09D0012D1CBF022D00F01FFC1B493D
:1033E000FF220A6002204A60207031BD2049214A34
:1033F000002008701549D08C00F0FF030B6056E7E1
:1034000001F0E8BA80B501F0EFFA1B4A1B491378C6
:1034100003F00F03C95C0818BDE80240493840B208
:1034200010F1570FB8BF6FF0560002DB0B28A8BF92
:103430000A205730C0EB0020612190FBF1F0C0B2B0
:1034400070470000F856002000860840C8850840F4
:10345000D0850840A885084080F42100F25400205F
:1034600004550020408608403C8608400244002065
:10347000F1540020A45000207857002084F421004B
:10348000CEE7F0B40246106895681318506803EB55
:103490005004C0071DD54D441BE013F8017B05F80F
:1034A000017B491EF9D1A0B1B60813F8011B06F043
:1034B0000306032E08BF13F8016B01EB06214942F6
:1034C000801C294405D011F8016B05F8016B401EE2
:1034D000F9D1A3420ED013F8016B16F0030104BF1B
:1034E00013F8011BC91C30090F28DAD113F8010B9E
:1034F0000F30D6E7F0BC02F10C00704710B5654CF8
:10350000654920466C2201F061FE1434FFF7BCFED1
:10351000A073FFF7B9FE207010BDA0F140021E2A73
:1035200038BF403804D3A0F1E0010F2902D23E3069
:10353000C0B270472D20704770B50D46FFF7EDFF04
:1035400006462D2E01D1F42070BDFFF737FC514BFC
:10355000441E524800EB860110F826004A78A44128
:1035600019182846FFF7D2F9E40F0CB1FFF722FC37
:10357000002070BD2DE9F041F12805460E46DFF828
:10358000148111D1317801290AD1022000F0A8FA62
:103590002846FFF7C2FF2D28014612D1F42076E01D
:1035A000022000F076FAF3E7F02805D130783C49A4
:1035B0000870FFF76BFEEBE74528E9D1C8F8086013
:1035C00064E0364800EB8107B978002904BFF87839
:1035D000002815D0F878814208BFFB2057D0582D1D
:1035E00005D130888F3846F22241884206D23078A1
:1035F000B978884224BFFA78824201D2E82046E0B6
:10360000FFF7DCFB7A78441E387831464044A44109
:10361000FFF77CF9E40F0CB1FFF7CCFB502D08F15C
:103620002A0010D0522D17D0532D11D0E02D27D0C5
:10363000E12D1CD0E22D1ED0E52D25D0E62D04BFB6
:103640003278C27722E0B8F82600FFF72AFE1DE0A4
:103650000088FFF728FE19E098F8290018B1022029
:1036600000F017FA12E0022000F03AFA0EE0007CB7
:10367000FFF75DFE0AE008F13C00FFF71BFE05E0E6
:10368000C07BFFF71CFE01E0317881770020BDE8A8
:10369000F0810000A450002018F22100D8F0210091
:1036A0006052002080B500F0A3FFFFF7DFFD00F0BF
:1036B000EBF901F015FA00F03FF8BDE8014000F029
:1036C000AFBA80B5FFF77AFB18B9FFF773FB00F0CC
:1036D000A5FA0849087818B901F027FAFFF7CEFDD6
:1036E00000F0B6FA01F07EFD0349012081F84800A0
:1036F00001BD000002440020A4500020704730B4F7
:10370000002513E050F8042BD30744BFA9F10103AF
:103710009A18091F042942F8045BFAD213468C0751
:1037200044BF15809B1CC90748BF1D7050F8041B7F
:103730000029E7D130BC7047DFF824030FF29D2346
:10374000036100210170C171704738B5C44C054652
:10375000207808B100F062FA0121C24A2170107885
:1037600018B1BDE832401D2053E16570284602289B
:10377000BD4D02D101F0FBFD19E000281CBF01285E
:1037800000F04CFA002020712A68B849907D42066A
:1037900060784CBF91F8462091F8252020B9C87870
:1037A00010B1022AC8BF0222A27000F03BF8E179F2
:1037B000B1B9286808B900F031FA2868AC4D426800
:1037C000117801F02001A171EE2391786171017AE5
:1037D000501E8A1C02702B60491CC9B201F05EF9B0
:1037E000FFF7ECFAA3490A78451EA3480078AD41DB
:1037F000ED0F024307D1832020700DB1FFF7DAFAF5
:10380000BDE8314023E0202804D10E2104F1080056
:10381000FEF76EFF022020701DB1BDE83140FFF7BA
:10382000C9BA31BD10B5FFF72FFD8D4B93F90220BA
:1038300001249440611E0840D870587818B9BDE83A
:10384000104001F04EBDBDE8104001F037BD8B487F
:10385000894A0168490849000160002010708049C8
:103860004878022808BF01F096BD10B57C4C6078FE
:1038700040B9FDF733FAE178814203D3BDE8104047
:103880001C20C6E0BDE8104001F046BD744801218F
:10389000C171407859E780B57649774B0A78187836
:1038A000024318BF00F0BAF9FFF788FA6C490A78AA
:1038B000401E8041C00F022A07D183230B7008B13C
:1038C000FFF778FABDE80140C1E718B1BDE8014053
:1038D000FFF770BA01BD10B5614C607800281CBFBD
:1038E000012800F09BF90420207000F038F92179BC
:1038F0006348491C2171C9B202788A4203D2BDE8EB
:103900001040E12085E0A178407B4A1C8242B8BF8C
:10391000481CA070FFF786FF83202070BDE8104090
:10392000A3E710B5FFF74AFA4D49441EA4410878B1
:10393000E40F83280ED1887940B985220A700CB132
:10394000FFF738FABDE81040002062E086200870DA
:1039500001F080FD04B13DE010BDF8B504460D4610
:10396000FFF72CFA3E4F461EB6413878F60F8628F0
:1039700012D18721397001F0E1FD0EB1FFF71AFA7B
:103980007879844204D1002D0CBF00201B2000E078
:10399000E920BDE8F2403CE01EB1BDE8F140FFF790
:1039A00009BAF1BD10B5FFF709FA441E2C48017899
:1039B000A441E40F86290AD18722027001F0BEFDDE
:1039C0000CB1FFF7F7F9BDE81040E92021E004B1A0
:1039D00000E010BDBDE81040FFF7ECB9264810B577
:1039E00001781F4C20290ED124490A685208520040
:1039F0000A60002101702078022801BF1D49087863
:103A00000028FFF748FF04F10800BDE81040FEF76A
:103A100088BE10B50446124800211B2CC1710170EC
:103A200004D01848017801F0FE01017000F097F809
:103A3000FFF765FCFFF795FC2046BDE81040FDF759
:103A4000B6B910B5084C206808B900F0E7F800F0E6
:103A500036F92168C86000F084FE2168088210BD34
:103A6000045500200244002040430020A4500020C0
:103A700038880840F0540020F25400209086084016
:103A8000C8500020635500205E480021417001703D
:103A9000704738B5050008BF00F0C0F8FFF78EF991
:103AA000441E58484178A4410D43457000F070F819
:103AB000E40F1CB1BDE83140FFF77CB931BD10B552
:103AC000040008BF00F0AAF8FFF778F94D494A78DA
:103AD000401E80411443C00F4C7000B13BE010BD4C
:103AE00010B5040008BF00F099F8FFF767F94549E1
:103AF0004A78401E84F0FF0480411440C00F4C708F
:103B000008B1FFF757F9BDE8104028E010B5FFF7FE
:103B100055F93C49401E804100224A700A70EF224C
:103B200039490A60ED240C60C00F0C6008B1FFF742
:103B300041F9BDE8104001F002B810B5FFF73EF9B9
:103B40003049441EA4414878E40F08B100F020F841
:103B500004B100E010BDBDE81040FFF72BB910B56F
:103B6000FFF72CF92749441EA4414878E40F60B9B7
:103B700026490878020608D42549087828B9254935
:103B80000878020658BF00F017F804B1E3E710BD4B
:103B900080B5FFF713F91B4A411E89411078C90F00
:103BA00020B901231370E320174A106019B1BDE852
:103BB0000140FFF7FFB801BD70B5FFF7FFF81149ED
:103BC000451EAD410878ED0FA8B10022124E0A70D3
:103BD000EF207060ED2171607160FFF7EFF8441E17
:103BE000A4412A20FFF76EF96FF00400E40F306063
:103BF0000CB1FFF7DFF81DB1BDE87040FFF7DAB890
:103C000070BD00006255002038880840F054002044
:103C1000F2540020045500203488084070470C00FE
:103C200080B5002000F0E1FD4FF47F0000F01AF8AD
:103C300047486FF0080141606FF01001026842F0E0
:103C4000080202604160026842F01002026001BD99
:103C50003F48016821F010010160026822F008026B
:103C60000260DDE738B5054600F08EFDA84228BFAA
:103C7000FFF7D4FFFFF7A2F8441E36480560284638
:103C8000A44100F0F3FDE40F04B100E031BDBDE854
:103C90003140FFF78FB838B5FFF790F8441EA441C4
:103CA00000F072FDE40F05460CB1FFF783F82948D8
:103CB00001688D4201D3002032BD284632BD38B59F
:103CC000FFF77CF8441EA44100F074FDE40F0546A4
:103CD0000CB1FFF76FF81F4801688D4201D3002037
:103CE00032BD284632BD70B51A4D0446286884425C
:103CF00028BFFFF793FFFFF761F86C60461E204670
:103D0000B64100F092FD00F03FFDF60F84420AD16B
:103D100011496FF0100008600EB1FFF74BF8BDE8D5
:103D20007040FEF753BC1EB1BDE87040FFF742B8CB
:103D300070BD7047FEF74ABC80B500F05EFEBDE87E
:103D40000140FEF791BC0348006870470000000086
:103D500008880840745600200C8808404018491C08
:103D60001CBFB1F1010100F8012DF9D1704700002D
:103D700080B568B9FF20FEF769FF0021002001F03F
:103D800025FC2049204B0020087001221A7001BD3B
:103D90001E4900200870BDE804400FF2390101F00F
:103DA00015BC70B51A4E0D463178FF2904460DD06A
:103DB0000420FEF7F3FD38B1C02101708570C47096
:103DC00001463078FEF70BFE002070BD012070BD6B
:103DD00000000000810801F00101E2E710B501F0E8
:103DE000F9FB53280CDA4F280A480168ACBF0124BC
:103DF000002419B120460228B8BF8847200000D00F
:103E0000012010BDAC5500208D5700207B570020AD
:103E1000044400200457002000F095BC794900209C
:103E20004860704770B504460D46164600F018F815
:103E300008B1466070BD1020FEF7CCFC78B18472EA
:103E40000581466000210160C1606E490A6812B9AF
:103E5000086070BD0A4611680029FBD1106070BD72
:103E600020B502466748006828B103898B4204BF29
:103E7000857A9542F7D120BDF8B505460E4617461E
:103E8000FEF79CFF3A463146441E2846A441FFF700
:103E9000C9FFE40F05460CB1FEF78CFF0DB1002001
:103EA000F2BD0820F2BDF8B504460D461646FEF7F1
:103EB00085FF471E324629462046BF41FFF7B2FF25
:103EC000FF0F040018BFE6600FB1FEF773FF0CB1DF
:103ED0000020F2BD0820F2BD70B504460D46FEF785
:103EE0006DFF461E29462046B641FFF7B9FFF60F83
:103EF00004001CBF002020810EB1FEF75BFF0CB157
:103F0000002070BD062070BDF8B504460D46FEF7D2
:103F100055FF0026471E29462046BF41FFF7A0FF58
:103F2000FF0F00B146680FB1FEF744FF3046F2BD07
:103F30002DE9FC410446334FFEF740FF7968401EEF
:103F400080416118C00F796008B1FEF733FF3D680A
:103F5000002D52D04FF000080094FEF72FFF0024F0
:103F6000461EB641BDF80200F60F002804BF9DF8BA
:103F70000100002807D128799DF80010884202D35B
:103F8000401A287106E06868009981423ABF401AD9
:103F900068606C60A88860B9E88860B9E868002843
:103FA0001CBF298900290AD0A87AFEF711FEE8680B
:103FB0006860A88808B9E88808B1288940B92868E5
:103FC000B8F1000F0CBF3860C8F800002C4600E0C4
:103FD000A8462D680EB1FEF7EDFE64B1A08800285A
:103FE00004BFE088002803D12189A07AFEF7F0FD04
:103FF0002046FEF759FC002DAFD1BDE8F381014802
:1040000040687047A4560020034800218171018058
:1040100070470149887170479C56002080B5182070
:10402000FEF7D8FB1549086018220021FEF786FC30
:10403000002001F0DBFA0120FDF79AFC022001F0DC
:1040400023FC032003F040FD042003F09DFE052027
:1040500004F0A6FA062004F091FD072006F094F87B
:10406000082006F093FA092006F0BEFC0A2007F0AB
:1040700035FFBDE802400B2000F002B80C570020CD
:1040800012490870704780B507F06CFFBDE8014029
:1040900008F034B938B50C4621040BD50B4D01E0BE
:1040A000FEF78EFC2878FEF7C7FC0028F8D184F4D0
:1040B000004032BDA00602D584F0200032BDE006EB
:1040C00002D584F0100032BD002032BD74570020AC
:1040D00008F01BB9EFF3108072B67047EFF3108051
:1040E00062B6704740BF7047DFF8D8140020086000
:1040F000704780B503F090F860B90022012100F00C
:1041000042F900281CBF0168002903D0BDE8024025
:1041100001F0D7BD01BD80B5042000F024F9DFF81F
:10412000A8140A78824207D3FF2000F01CF9DFF8B8
:104130009C140A78824201D2012002BD002002BDF7
:104140002DE9F04107468846387B00F02EF900251E
:104150000446012624BB7A89397B386800F0BDF813
:10416000040062D025810125387C2074788A608221
:1041700007F1100009F0DDF86061388B6189208358
:10418000B87EA0764FF67F400140618148074FBF5F
:1041900041F08001DFF83804027841EAC211618100
:1041A0006289D009B8F1000F00F0070012D0022197
:1041B000617321688B7B590703D5DFF818140B8ACC
:1041C000238120B34FF67F410A40401E42EAC012CD
:1041D00062811CE008B9002619E0900605D5FEF7BB
:1041E000DBFB00F07F005F3008E0D00605D5FEF76E
:1041F000D3FB00F00F000A3000E0012020812021D5
:1042000004206073DFF8D0030078FEF7E1FC6DB1A5
:104210002289617B204600F073F838B1606908B1EB
:10422000FEF742FB2046FEF73FFB00263046BDE886
:10423000F0817FB500F0B9F80024B8B3417B0629BE
:1042400034D1016844890A7A8DF8082001680A8807
:10425000ADF8002000F0EDF8200526D5BDF80010DF
:10426000002000F026F800BBDFF86853A98C6846F0
:104270000AF044FC0021002000F01BF804464FF631
:10428000FF760DE020680188B1420ED0A98C0AF0BB
:1042900033FC1A2809D00021204600F00AF8044611
:1042A000002CEFD100200AF02BFC0124204604B0A2
:1042B00070BD58B1406868B142891305FAD50A004B
:1042C0001EBF026813888B4204D0F3E7DFF8F402C4
:1042D0000068F0E770470120704770B504460D464E
:1042E00016461C20FEF776FA48B10021417305738B
:1042F000468101818173C17304604161416070BD79
:1043000070B504000E4615462BD0012E304606D15E
:1043100000F029F8B1490A7882420CD207E0042E55
:1043200007D100F020F8A8490A78824203D2112070
:1043300070BD022E15D10020606066732581A148F2
:10434000016831B100E0014648680028FBD14C60AB
:1043500000E00460A04800782021FEF739FC00202E
:1043600070BDC12070BD10B5964909680246002095
:1043700005E04C7B4968944214BFFF2A401C002989
:10438000F7D1C0B210BD10B558B1406860B1437BE1
:104390008B42FAD1130007D003689C7B630703D5D7
:1043A000F3E788480068F1E710BD014685480068DA
:1043B00000E0406800281CBF027B8A42F9D17047A8
:1043C00001468048006800E0406850B102681388E8
:1043D0008B42F9D1126A1378527803EB0223DB0582
:1043E000F2D47047F8B50546002728000E460AD0DB
:1043F0007448046800E064682CB131462046A84740
:104400000128F8D127463846F2BD0020704718B57C
:104410006C4A13681946002401E00C46496839B11A
:104420008142FAD14868994201D1106011BD6060A3
:1044300011BD10B5040011D0FFF7E9FF2068006A34
:10444000FEF732FA2068FEF72FFA606908B1FEF72E
:104450002BFA2046BDE81040FEF726BA10BD70B515
:104460000168584B0A8819680023002409E04D7B35
:10447000052D01BF641C0E6835889542496808BF48
:104480005B1C0029F3D1564A52491578DBB2AB4286
:104490003FBF544B1D78E4B2AC422CBF01220A8AC4
:1044A00002814FF6FF7305224273428942F4006293
:1044B0004281006802889A4204D0898C0AF01CFB71
:1044C0001A2804D1BDE8704001200AF019BB70BD64
:1044D00070B53C4D2C68002C0EE021686668086AB7
:1044E000FEF7E2F92068FEF7DFF96069FEF7DCF914
:1044F0002046FEF7D9F93400EFD10020286070BDC6
:1045000010B501000AD0A1F108021068002804BF0C
:104510009379FF2B04D00846FEF752FA052010BD10
:104520002D4C20789071304802783048FEF72EFBF1
:10453000012806D120784FF40051FEF749FB0020F6
:1045400010BD042010BD70B5FEF738FC274E34684E
:10455000451EAD41ED0F8CB11F4854F8081C007882
:1045600000294FF4005102D0FEF732FB01E0FEF7C4
:1045700046FB002221463046FEF7ECFA0DB1FEF76D
:1045800019FC204670BD70B505460E48046800262B
:1045900014E021680A88AA420FD100202081A07A65
:1045A000410744BF207B0BF057FC06216173F021CB
:1045B0002068407B01F0E6FB761C6468002CE8D1A3
:1045C000F0B270BD5857002086F2210087F221001A
:1045D0000D4400202C500020D456002085F22100EC
:1045E00089F221008AF2210095F221005C57002017
:1045F000F8B5DFF8380488B0142101603F228260EA
:104600005523DFF82C44C3608521E1670122426114
:104610001521DFF8205441620022AA6710210163AE
:104620000E224263032181630920DFF80C74042306
:1046300078650B221A60FF263E6080212A20FEF753
:10464000D8FB80212B20FEF7D4FB2A20FEF7E2FBCB
:104650002B20FEF7DFFB80213120FEF7CAFBDFF8BD
:10466000DC03DFF8C4630168090C3160FEF7A6FBC8
:10467000401E80410221F9670022DFF8C4130A605E
:104680002823C00F4B6008B1FEF794FBDFF8B4039A
:1046900001680A03FAD5386F40F003003867386FB5
:1046A0004107FCD5386F40F00A0038673120FEF72B
:1046B000B1FB48202060FFF76BFA206CC107FCD5E6
:1046C00000211020A26F53084941401E89B2F9D140
:1046D000002914BFB1F5607F4BF6BE21DFF86803F7
:1046E00001F0FF02026009120160716879B10022D5
:1046F00000230820A66F77085B41401EFAD1684668
:10470000D6B2521C8355D3B2202BF1DB8847FFF77A
:1047100053FA402020600022216841F020012160EE
:104720002A606A60AA60EA602A616A6109B0F0BD25
:10473000DFF81803016821F00C0141F00401016069
:104740008069C0B27047DFF80403016821F00C01F2
:1047500041F0040101608169406900EB012080B2F1
:10476000704710B5FEF72AFBDFF8E412401E8041C7
:1047700001220A60C00F8A684C6844EA022408B12A
:10478000FEF718FBA0B210BD80B5FEF717FB00F0D6
:1047900009F84B684A698DF800200B698DF80130E3
:1047A000002318E0DFF8A812401E804100220A60B2
:1047B000C00F704780B5FEF701FBDFF89412401E72
:1047C000804110220A60C00F4B698DF80030002331
:1047D0000A698DF80120CA688DF802208DF803302F
:1047E00008B1FEF7E7FA009802BD01B5000E18BF48
:1047F000FFF714FAFFF7C8FF964AD3680099C0186C
:10480000401AD060FEF7DAFAFFF7CCFF9DF80030CF
:104810004B619DF801200A619DF80220CA6018B121
:10482000BDE80140FEF7C6BA01BD11B5002481B054
:10483000000E18BFFFF7F2F9FEF7C0FA00F038F8E3
:10484000D30604D50A6822F0100201240A6030233E
:104850008B606FF0100300F031F84B601CB10A68F8
:1048600042F010020A6000B132E013BD11B500241D
:1048700081B0000E18BFFFF7D1F9FEF79FFA00F0E4
:1048800017F8130704D50A6822F0080201240A6009
:1048900020238B6000F012F84B6823F008034B6074
:1048A0001CB10A6842F008020A6000B110E013BDB2
:1048B00069490A68401E8041C00F70479DF8042076
:1048C000CA619DF805208A619DF806204A617047FB
:1048D000BDE81340FEF76EBA38B55F4C25686068D6
:1048E0000540E80604D5FFF725FA6FF01000606078
:1048F000280704D5FFF720FA6FF008000DE0E8075D
:104900000CD556490868564991F9003040B2984292
:10491000B8BF184608706FF00100606031BD70B517
:10492000504C514D666C2A20FEF7CCFA2868304076
:10493000010705D56FF00800286000F00AFE13E0BB
:1049400029683140C80605D56FF01001296000F0D4
:1049500007FE09E028680640F10705D5606C4008AD
:104960004000606400F0A8FB206C696808404007C4
:1049700007D500F024F96FF004006860216848064C
:10498000F7D470BD10B539490C682B20FEF79AFAA0
:104990003748016821404A0603D56FF040010160A5
:1049A00010BD02682240D10708D56FF001020260F5
:1049B000FFF7ACF8BDE81040FFF7EAB801680C401B
:1049C000620706D56FF004010160BDE8104000F0F9
:1049D000BCBB10BD22496FF07F0008701E48026802
:1049E00042F00102026070471B4801684908490013
:1049F00001601B4890F90000704738B5FEF7DEF9FA
:104A0000144D441EA4412878E40F28B9FFF79BF900
:104A1000E9684018E86001E0002028701CB1BDE89A
:104A20003140FEF7C7B931BD7C560020A48608404E
:104A3000248608409085084094870840F80F280095
:104A40001488084004200D4014700D4000700D4083
:104A5000108808408C55002008880840608608406F
:104A6000775700204C8608403088084094860840DC
:104A70002C88084004E011F8013B40F8043B521E2A
:104A8000D3B2002BF7D1704704E050F8043B01F893
:104A9000013B521ED3B2002BF7D1704738B5044604
:104AA0000D0008BFFFF7BAF86D1E14F8010B0B4993
:104AB000EAB2002A0860F7D131BD38B504460D00CE
:104AC00008BFFFF7ABF80548016804F8011B6D1E2D
:104AD000EAB2002AF7D131BD000000002888084062
:104AE0000021DFF8A006416100220FF2F901C27235
:104AF00082800161827182818273704738B5DFF8EC
:104B0000885605202860FEF759F900F053F8DFF8C1
:104B10007C166FF00400E40F08600CB1FEF74AF950
:104B2000E86B40F00400E86331BD80B5FEF7EEFFAE
:104B3000DFF8501600204871BDE802400AE310B5C6
:104B4000DFF84046207B0121617318B900F003F8BB
:104B50000020607310BD38B5DFF82C06DFF82C5646
:104B6000016C49084900016405220260ED2068607B
:104B70006860FEF723F900F01DF86FF00400E40F01
:104B800028600CB1FEF716F9DFF8F845606918B136
:104B900004F11400FCF73AF80FF249002179206182
:104BA000A079014305D000212171A171BDE83140F8
:104BB0008FE231BD441EA4412A20FEF783B910B50F
:104BC000DFF8C045607B58B9012121732069804717
:104BD0000021607B217318B1FFF7BDFF00206073D7
:104BE00010BD00002DE9F84FDFF8987538790025E1
:104BF00008B1FFF713F88121DFF894253971107897
:104C000038B1DFF89045606A010606D4606A410653
:104C100003D43D7100F05DFA59E100F002FCA06E92
:104C2000DFF8749540084000A066BD7104217879D2
:104C3000B8723846FFF741FF387800F07F00C01E99
:104C4000F871C0B27D28BEBF787800F00701042952
:104C500071DA00F00700022804BFF87A0028DFF8B4
:104C60003C6540D100F082F9FEF7A8F8B0F10108E8
:104C7000307868EB080886284FEAD8742FD1DFF81F
:104C80002055286808B9FEF7C9FF00F011FA9DF910
:104C9000001003F00F03C05C41189DF80100A1F162
:104CA000490600F07F09494670B2FEF7E9FB296822
:104CB0004877286880F81E902968CE770CB1FEF7F7
:104CC00079F89DF80100010606D57978F87801F0A9
:104CD0001001FEF742FE33E0FEF764FE30E07CB3E5
:104CE000FEF768F82CE03078862808BFFEF75AFEF9
:104CF0007A78B97A79B1F87A68B9012936D0022977
:104D000003D112F0070F31D105E0032903D102F0DE
:104D1000070003282AD1B978C1F381004FEA91181E
:104D20000090DFF88014086868B9B8F1010F1CBF63
:104D30000098012807D1ED21C9F80810C9F808101A
:104D400000F0A2F9C3E000990FF27C40465C10F835
:104D500008008619B8F1000FF6B203D0500644BF20
:104D6000B61EF6B2F879B31C984202DA00F0BAF92E
:104D7000ADE0801B801E7872110748BF2525C0B2A8
:104D800045194C35A8B2FBF733FF786118B9E82014
:104D9000C9F80800EAE7F87A4FF0000A18B97878FD
:104DA00000F02000B871B879A8B3FEF707F8B0F1A9
:104DB000010B787800F007006BEB0B0B03284FEA30
:104DC000DB7B0CD1FBF7FFFE002870D1DFF8D81396
:104DD0000878002867D00BF029FCFE2867D02068EF
:104DE00020F004002060FDF7E9FF451EAD412A20B8
:104DF000FEF768F86FF00100ED0FC9F800000DB183
:104E0000FDF7D8FFA06E40F00100A066BBF1000FD7
:104E100018BFFDF7CFFF786900F14C0141600164D4
:104E2000797A01727869017A80F8441078780107FC
:104E300010D57969032081F84400791C78694030E5
:104E400002790068FDF762FD786950F8401F027929
:104E50000A440260786980F824807869009980F8B3
:104E60002E10FFF7A7FC79690863FFF77AFC7969D0
:104E70008886787800F0070008737969F87881F8F7
:104E80003D007978B878C0F3011001F0780108434B
:104E90004AEA0001786981737EB90FF2FD0038613A
:104EA00000F067F813E0FBF782FE002897D0206837
:104EB0004FF0040A40F0040094E73E727978387AA3
:104EC0000A0758BF401EA0620FF209003861BDE812
:104ED000F18F000030B5AB4C207A85B008B9FEF7F1
:104EE0009DFE00F042F8A0786946C0F38100C8B189
:104EF00062699DF800304D7803EB05231387032882
:104F0000138FD38608D10DF1020102F12600FDF7BF
:104F10004EFF0DF10A0105E08878C97800EB012009
:104F2000D08401A9A078800915D06269937B5D06C1
:104F300005D40B784D7803EB0523D386891C032811
:104F400004D102F11C00FDF732FF04E00878497833
:104F500000EB0120908300206169C8750FF23900D1
:104F6000206100F006F805B030BD217A6846FFF7F1
:104F7000A4BD8449844A487A28B9012010600FF200
:104F80003D020A6170471028A8BF10200872087AF5
:104F9000401E10607047000010B57A4C6269217A9B
:104FA000106CFFF78AFD6169207A0A6C02440A647A
:104FB000617A081A6072BDE81040DAE72DE9F8431B
:104FC000704D02212846FFF778FD6E78002406F028
:104FD000800630006F4F02D1E87A022842D10221C8
:104FE0002971FEF7BCFD00F063F8295703F00F03A9
:104FF000C05C41186878A1F1490900F07F0841467A
:105000004FFA89F0FEF73CFA696981F83A0068695D
:1050100080F83C90696981F83B80696991F8443077
:105020004A6801F14C000864087A1B1AD0184860DD
:10503000897B4A0706D50078042803D0396821F017
:1050400004013960584A107818B10BF0F7FA00B132
:1050500004246869817B34430C4384736869FBF7DB
:10506000DAFD08E0B86E40084000B866AC7105F1A2
:105070001400FBF7CBFD002068610521B9624B48A5
:105080002861BDE8F14300BF494801684A0606D5DA
:105090000068010603D44748ED2202600260002246
:1050A000384802718079002808BF00F012B87047B4
:1050B000414A42481378704710B5324C40480021AD
:1050C000A171FDF72EFB207910B9BDE8104000E07A
:1050D00010BD80B5FEF743FDFEF711F9BDE80140B4
:1050E000FEF7D9BB10B5274C30492069884218BF5C
:1050F000FEF794FDE07910B9BDE81040C4E7102830
:10510000A8BF102020722049207A0FF20D02401E05
:105110000860226110BD00001FB51A4CFFF725FF83
:10512000E179207A081AE071C2B2174932B1102A27
:105130000ADA2072C0B2401E08601FBD0520086058
:105140001A492161FFF7A0FF1FBD0E48817B491C52
:105150008173F4E410B50B491A4CC872010006D1F2
:1051600000202060216841F00901216010BD022863
:105170001CBF0128FEF752FD206840084000206057
:1051800010BD0000EC5400205086084034880840D0
:1051900062550020288608403088084004550020C9
:1051A000404300207C56002075570020E54B20002E
:1051B0004C860840388808407857002084F4210045
:1051C0000C5500200086084000BE040A4AB10000C9
:1051D00011F8013B521E00F8013B1CBF11F8013BC6
:1051E000F8E7704770B5134D2C787CB970BD012C71
:1051F00018BFFEF713FD3068010358BFFEF70EFD20
:1052000000202870BDE87040FEF797BC0A4E306859
:105210000103FBD50948026842F0030202600168FD
:105220004A07FCD5022CE2D10BF0AAFAFFF766FC84
:10523000E6E700000244002004200D4004880840F6
:1052400010B5FDF7BBFDDFF85813401E804100226A
:105250000A60C00F4B688C6808B1FDF7ABFD2406EF
:10526000600E10BD38B5DFF830030168CA0648BFCC
:10527000FEF7D4FCDFF82C03DFF82C530121016783
:105280000160E220A860FF21A960FDF797FD00F012
:1052900050F96FF01000E40F28600CB1FDF78AFDA3
:1052A000FDF78CFD00F045F96FF00800E40F286071
:1052B0001CB1BDE83140FDF77DBD31BD10B5FFF734
:1052C000D1FFB648BC210160B82202600F23036001
:1052D000D0240460046004600460D22110240460BF
:1052E0004AE010B5FFF7BEFFAC48BC2101601722B1
:1052F00002608123036010240460D22101600360F6
:10530000046001600122D921016000F07FF8D223FE
:10531000C5220260036010BD38B500F07EF8A34CD2
:1053200011606FF002002060FDF748FDA04B411EA8
:10533000894100206060C90FA268E0681D68122DD5
:10534000C0B204D2D3B2002B04BF00280122032331
:105350006360D2B2A260E06009B1FDF72BFD8E4818
:1053600000F04BF8FEF714FCE120E06231BD10B50F
:10537000FFF778FF8948BC210160D9220260012330
:10538000036009240460BA2101600360D224C523AC
:105390000360046010BD2DE9F041814D7E48DFF8C7
:1053A000148200F02AF8FDF709FD441EA4410020F4
:1053B0002860E40F69686E69F6B206F00F07C7F15E
:1053C0000F07FFB2C8F80070FEF7A0FB7A49012072
:1053D0000870E122AA620020286069686869864234
:1053E00004D0022FA4BF7F1EC8F800701CB1BDE816
:1053F000F041FDF7DFBCBDE8F081016841F010012C
:105400000160026842F008020260704702600923EE
:105410000360BA240460026070476848654A0178F6
:10542000704760490868002800D0704780B55A4826
:105430000168CA060DD5016821F0100101600268FB
:10544000110705D5026822F008020260FEF7F9FA9A
:10545000B8E001BD2DE9F843DFF83C81D8F8000041
:10546000C10648BFFEF7DAFBFFF7EAFE8146544863
:105470000478142CD8BFFEF7D1FB4C44143CE4B2A2
:10548000142194FBF1F7F9B2142000FB1144494DAB
:105490007F1C0221A960FFB2E0B22F601428C8BFB0
:1054A000FEF7BCFB414E6FF002003060FDF786FC5A
:1054B0003F4A401E80410321716024061168C00FDD
:1054C000E40B122902D2A1B201B90124A1B201F068
:1054D000FF012404B160240EF46008B1FDF76AFCFA
:1054E000E220F062FF21F162FDF768FC00F021F894
:1054F0006FF01000E40F70620CB1FDF75BFCBC2094
:10550000F062B821F162D220F062E120D8F80010F8
:1055100041F01001C8F80010F062FFF791FE484515
:1055200005DA2868B84202D12968491E2960BDE819
:10553000F183441EA4412A20FDF7C4BC164801682B
:1055400021F010010160E22214480260FF21016095
:1055500070471148016821F008010160FEF771BA37
:1055600080B50D48016821F0100101600D490868FF
:1055700000B927E00868012803D1BDE80140FEF723
:10558000AAB90868022818BFFEF748FBBDE8014029
:10559000FEF708BA000000009086084038880840EE
:1055A0001088084090870840308808400C880840E0
:1055B0007C5600208887084062550020075500204F
:1055C000A4500020BDE80140FEF7ABB970470000D1
:1055D0000020704704480F21816002681106FCD545
:1055E0000069C0B27047000000700D40A449087007
:1055F0001021FDF7EDBA78B50D4628048BB0A04E0A
:1056000015D4690431D50BF075F918B10BF0AAF96E
:105610000BF058F985F48045D3E020460BF0A2FC4E
:1056200002E020460CF044FE2046FDF7C9F9307830
:10563000FDF702FA040000F0C7802078012808D0A6
:105640001A280AD0D1280CD0D328EAD0FD28E4D0DB
:10565000EAE760680BF086F9E6E720460BF093FC7A
:10566000E2E720460CF0E6FCDEE7A80407D50BF0E5
:1056700041F908B10BF076F985F40055A1E0E90491
:10568000804C23D5A06848B9201DFDF73AFAA060E8
:10569000E06018B14078401D608001E0A06890B1E2
:1056A0006288E168002006F03BFE6188091A61808B
:1056B00089B229B9A068FDF783F90020A06002E053
:1056C000E1680844E06085F480557AE0280505D556
:1056D00000200DF0F9F885F4006572E0680505D545
:1056E00001200DF0F1F885F480656AE0A80505D584
:1056F00002200DF0E9F885F4007562E0E80505D5B3
:1057000003200DF0E1F885F480755AE0E90650D5E4
:10571000207818BB01218DF80010042200218DF89B
:1057200002108DF80120AA210522ADF80C10ADF869
:105730000420052178228DF80610ADF818200122EA
:105740000FF219110A918DF82020694606F0D7FD55
:1057500030780DF0C7F8132009F0D7F900220221A4
:1057600040F601700DF084FD0022022140F6027027
:105770000DF07EFD0022022140F603700DF078FD51
:105780000022022140F604700DF072FD002210216B
:1057900040F605700DF06CFD0022102140F60670F9
:1057A0000DF066FD0BF004FD0DF070F885F01005AE
:1057B00007E0280704D50BF099F985F0080500E00B
:1057C000002528460CB070BD85F40045F9E780B58A
:1057D0002C4B1A7832B9491D88B2FDF7DFF870B149
:1057E000401C02BD00F0E0006028084603D1BDE87F
:1057F00002400BF001B8BDE802400BF010B802BD4A
:1058000070B5204D04462878B0B92678F61CF1B260
:1058100020460DF06AF8F6B2FE22A05504F8012CDD
:10582000611E281DFDF752F9BDE87040144800784C
:105830004FF48051FDF7CCB9607800F0E0006028AB
:1058400004D12046BDE870400AF0EDBF2146281D76
:10585000FDF73CF9BDE870400BF021B8084A12781A
:1058600001291CBF0229042902D0102903D0704746
:1058700011460DF049B84FF480511046FDF7A8B914
:1058800079570020AC55002010B5DFF8F418DFF888
:10589000F4480870002084F826000DF083FEFEF71F
:1058A00023FC0020606708F0DCFBDFF8DC080078F0
:1058B000002818BF012803D10DF016FF09F05AF98E
:1058C0000DF084FEDFF8C41800200860BDE8104029
:1058D00009F00DB92DE9F047DFF8A4588EB00F4656
:1058E000287839041BD5FDF7A7F8040014D0002050
:1058F0000FF2F82100E0401CC2B211F83230FF2B49
:1059000007D02578AB42F6D1091D204651F8321058
:1059100088472046FDF754F887F4004050E1B90469
:105920000BD5FEF710FE040004D000F047FC204623
:10593000FDF746F887F4005042E1DFF84C48DFF805
:1059400050682178022921D1FB071FD5307A0F2812
:1059500019D1DFF840080188491C018040F2E93084
:1059600089B2814206DBDFF8300800784FF400414D
:10597000FDF72EF9002000F072F920B1DFF81C08C5
:10598000006800F022FA87F0010019E1BB0640F13F
:1059900099802021FEF7B8FA6968084308BF0124FE
:1059A0000DD0FEF72CFB01466868002428B1814227
:1059B00032BF6FF000440C1A6408002C3ED000F097
:1059C00049F906000DF134094FF0FF3A36E0FF20A7
:1059D0008DF800008DF801008DF802A001AA306852
:1059E000C17F006A06F024FF01281BD1708A40F0B5
:1059F0008000ADF83200B17B8DF83410B17A0A071F
:105A000006D540F48070ADF83200307B89F8020092
:105A1000706910B1007BADF814000022694601A83E
:105A20000EF0A7FB06207073307BFEF702FC03E04C
:105A30000028CCD1012070735FEA080600F0C38013
:105A4000002204213046FEF79EFC80463089A042A9
:105A50002CBF001B0020308130890028ECD1B07BA6
:105A60000128E5D1B17A4A07E2D406207073B72144
:105A70003068407B00F086F9DEE7B0F8088003E08C
:105A80000189884588BF884600220421FEF77BFCF7
:105A90000028F5D1A1B22878414503D2A8EB04042F
:105AA000A1B221B92021FDF793F8002006E02404DB
:105AB000E20B2021FEF7E0F9FEF7A1FA686087F01B
:105AC00020007DE0002918BF012959D1F80604D52E
:105AD00009F019FC87F0100072E0780604D50AF08E
